:020000040000FA
:040000000DEF00F010
:020004000000FA
:020008001000E6
:080018001000956A1BEC00F0DA
:1000200025EC00F01EEC00F025EC00F022EC00F0D6
:1000300025EC00F0F3D783688392120083688392E3
:10004000839812008368839C1200FA0E016E1E0EC4
:10005000006E000000000000000000000000000032
:100060000000000000000000000000000000000090
:100070000000000000000000000000000000000080
:100080000000000000000000000000000000000070
:10009000000000000000000000000000002ED9D782
:0600A000012ED5D712006D
:00000001FF
